:100000000C942A000C9465000C9492000C94BF0090
:100010000C9447000C9447000C9447000C94470044
:100020000C9447000C9463020C9401030C94D402CA
:100030000C9447000C9447000C9447000C94470024
:100040000C9447000C9447000C9447000C94470014
:100050000C94470011241FBECFE5D8E0DEBFCDBF12
:1000600011E0A0E6B0E0E2E4F0E502C005900D92F8
:10007000AE3DB107D9F711E0AEEDB1E001C01D9280
:10008000AB3EB107E1F70E944A170C941F280C946D
:100090000000DF93CF93CDB7DEB7ABE5B0E0EBE583
:1000A000F0E0808180648C93A5E5B0E0E5E5F0E0C8
:1000B000808181608C93A5E5B0E0E5E5F0E080818A
:1000C0008D7F8C93CF91DF9108951F920F920FB681
:1000D0000F9211242F933F934F935F936F937F93CE
:1000E0008F939F93AF93BF93EF93FF93DF93CF9340
:1000F000CDB7DEB7E091E301F091E4010995CF912E
:10010000DF91FF91EF91BF91AF919F918F917F917F
:100110006F915F914F913F912F910F900FBE0F9074
:100120001F9018951F920F920FB60F9211242F93C4
:100130003F934F935F936F937F938F939F93AF936F
:10014000BF93EF93FF93DF93CF93CDB7DEB7E091EB
:10015000DF01F091E0010995CF91DF91FF91EF91DF
:10016000BF91AF919F918F917F916F915F914F91CF
:100170003F912F910F900FBE0F901F9018951F92D7
:100180000F920FB60F9211242F933F934F935F93CB
:100190006F937F938F939F93AF93BF93EF93FF934F
:1001A000DF93CF93CDB7DEB7E091E101F091E201AB
:1001B0000995CF91DF91FF91EF91BF91AF919F9101
:1001C0008F917F916F915F914F913F912F910F9000
:1001D0000FBE0F901F901895DF93CF9300D0CDB72F
:1001E000DEB79A83898389819A819093E401809311
:1001F000E3010F900F90CF91DF910895DF93CF939C
:1002000000D0CDB7DEB79A83898389819A81909394
:10021000E0018093DF010F900F90CF91DF9108955F
:10022000DF93CF9300D0CDB7DEB79A8389838981DE
:100230009A819093E2018093E1010F900F90CF910A
:10024000DF9108950F931F93DF93CF93CDB7DEB760
:1002500068970FB6F894DEBF0FBECDBF988B8F871F
:100260007A8B698B5C8B4B8B3E8B2D8B188F0F8B16
:10027000EEE4F0E081E48083A8E5B0E0E8E5F0E0BA
:10028000808180628C93E8E5F0E08081829586959C
:100290008770882F90E0817090700097A1F3E6E45A
:1002A000F0E0808191819C8B8B8BEEE4F0E081E02B
:1002B0008083ECE4F0E0118210821092DE01E8E528
:1002C000F0E080E28083E8E5F0E080818295869529
:1002D0008770882F90E0817090700097A1F3E6E41A
:1002E000F0E080819181988B8F87EEE4F0E081E4EB
:1002F0008083A8E5B0E0E8E5F0E0808180628C933F
:10030000E8E5F0E08081829586958770882F90E0FF
:10031000817090700097A1F3E6E4F0E08081918114
:100320009A8B898BA3E2B0E0E6E4F0E080818C93C5
:10033000A8E5B0E0E8E5F0E0808180628C93EEE42F
:10034000F0E010828F8598899C0140E050E0809118
:10035000DE01882F90E0A0E0B0E0DC01992788273B
:10036000820F931FA41FB51F9C01AD0160E070E0D8
:1003700080E090E0ED89FE892083318342835383BE
:10038000648375838683978389899A899C0140E079
:1003900050E08091DE01882F90E0A0E0B0E0DC0129
:1003A00099278827820F931FA41FB51F9C01AD01B9
:1003B00060E070E080E090E0EF89F88D2083318389
:1003C00042835383648375838683978380E090E0C0
:1003D000AAE7B4E48B879C87AD87BE876B857C8555
:1003E0008D859E8520E030E04AE755E40E94592142
:1003F000DC01CB018F839887A987BA876F817885C5
:1004000089859A8520E030E040E85FE30E945F2321
:1004100088232CF481E090E09E838D833FC06F8120
:10042000788589859A8520E03FEF4FE757E40E9461
:10043000FF2218164CF56B857C858D859E8520E006
:1004400030E040E251E40E945921DC01CB01BC01C3
:10045000CD010E943218DC01CB019E838D830FC039
:1004600080E991E09C838B838B819C810197F1F7DC
:100470009C838B838D819E8101979E838D838D814B
:100480009E81009769F714C06F81788589859A8568
:100490000E943218DC01CB019E838D838D819E8169
:1004A0009A83898389819A810197F1F79A83898355
:1004B00068960FB6F894DEBF0FBECDBFCF91DF9127
:1004C0001F910F9108951F920F920FB60F92112452
:1004D0008F93DF93CF93CDB7DEB78091DE018F5F2F
:1004E0008093DE01CF91DF918F910F900FBE0F901F
:1004F0001F901895DF93CF930F92CDB7DEB7898306
:10050000ECE5F0E0898180830F90CF91DF91089531
:10051000DF93CF93CDB7DEB7E2E5F0E01082ECE5F4
:10052000F0E01082A3E5B0E0E3E5F0E080818064D4
:100530008C93A3E5B0E0E3E5F0E08081877F8C93C6
:10054000A3E5B0E0E3E5F0E080818F7E8C93A3E546
:10055000B0E0E3E5F0E0808180628C93A3E5B0E059
:10056000E3E5F0E080818E7F8C93A3E5B0E0E3E5E6
:10057000F0E080818D7F8C93A3E5B0E0E3E5F0E0CF
:10058000808184608C93A9E5B0E0E9E5F0E08081AA
:100590008E7F8C93A9E5B0E0E9E5F0E080818D7F66
:1005A0008C93CF91DF9108951F920F920FB60F9207
:1005B00011242F933F934F935F936F937F938F9368
:1005C0009F93AF93BF93EF93FF93DF93CF93CDB7F9
:1005D000DEB7E091E501F091E6010995CF91DF9159
:1005E000FF91EF91BF91AF919F918F917F916F910B
:1005F0005F914F913F912F910F900FBE0F901F90E1
:1006000018951F920F920FB60F9211242F933F93BC
:100610004F935F936F937F938F939F93AF93BF930A
:10062000EF93FF93DF93CF93CDB7DEB7E091E70170
:10063000F091E8010995CF91DF91FF91EF91BF9182
:10064000AF919F918F917F916F915F914F913F916A
:100650002F910F900FBE0F901F901895DF93CF939F
:1006600000D0CDB7DEB79A83898389819A81909330
:10067000E6018093E5010F900F90CF91DF910895EF
:10068000DF93CF9300D0CDB7DEB79A83898389817A
:100690009A819093E8018093E7010F900F90CF919A
:1006A000DF910895DF93CF9300D0CDB7DEB7898374
:1006B0006A838981883060F58A818130A1F4ABE357
:1006C000B0E0EBE3F0E08081482F8981282F30E013
:1006D00081E090E0022E02C0880F991F0A94E2F791
:1006E000842B8C93BCC0ABE3B0E0EBE3F0E0808103
:1006F000482F8981282F30E081E090E0022E02C04F
:10070000880F991F0A94E2F7809584238C93A7C0E1
:1007100089818830A8F18981803190F58A81813082
:10072000B9F4A8E3B0E0E8E3F0E08081482F8981E4
:10073000882F90E09C012850304081E090E0022E0C
:1007400002C0880F991F0A94E2F7842B8C9387C00C
:10075000A8E3B0E0E8E3F0E08081482F8981882FAA
:1007600090E09C012850304081E090E0022E02C0D1
:10077000880F991F0A94E2F7809584238C936FC0A9
:1007800089818031A8F18981883190F58A81813011
:10079000B9F4A5E3B0E0E5E3F0E08081482F89817A
:1007A000882F90E09C012051304081E090E0022EA3
:1007B00002C0880F991F0A94E2F7842B8C934FC0D4
:1007C000A5E3B0E0E5E3F0E08081482F8981882F40
:1007D00090E09C012051304081E090E0022E02C068
:1007E000880F991F0A94E2F7809584238C9337C071
:1007F00089818831A0F18981803288F58A818130B0
:10080000B9F4A2E3B0E0E2E3F0E08081482F89810F
:10081000882F90E09C012851304081E090E0022E2A
:1008200002C0880F991F0A94E2F7842B8C9317C09B
:10083000A2E3B0E0E2E3F0E08081482F8981882FD5
:1008400090E09C012851304081E090E0022E02C0EF
:10085000880F991F0A94E2F7809584238C930F9058
:100860000F90CF91DF910895DF93CF9300D0CDB754
:10087000DEB78A8319828A81883090F4E9E3F0E058
:100880008081282F30E08A81882F90E0A90102C062
:10089000559547958A95E2F7CA01817089834AC0C8
:1008A0008A818830B0F08A81803198F4E6E3F0E004
:1008B0008081282F30E08A81882F90E00897A90155
:1008C00002C0559547958A95E2F7CA0181708983E0
:1008D00031C08A818031B0F08A81883198F4E3E3B5
:1008E000F0E08081282F30E08A81882F90E04097C7
:1008F000A90102C0559547958A95E2F7CA01817012
:10090000898318C08A818831A8F08A81803290F466
:10091000E0E3F0E08081282F30E08A81882F90E0AA
:100920004897A90102C0559547958A95E2F7CA01F3
:10093000817089838981882F90E00F900F90CF91EB
:10094000DF910895DF93CF9300D000D0CDB7DEB70D
:100950001A8219821A82198258C129813A81C901E1
:10096000880F991F820F931FFC01E05AFF4F80816F
:10097000282F30E03C832B838B819C818130910533
:1009800009F461C02B813C81223031052CF48B812C
:100990009C81009771F034C12B813C81223031055C
:1009A00009F49BC08B819C818330910509F4DFC0E1
:1009B00027C129813A81C901880F991F820F931F8E
:1009C000FC01EE59FF4F80818130F1F4AAE3B0E0E1
:1009D000EAE3F0E08081482F29813A81C901880F3C
:1009E000991F820F931FFC01EF59FF4F8081282F21
:1009F00030E081E090E0022E02C0880F991F0A9437
:100A0000E2F7842B8C93FCC0AAE3B0E0EAE3F0E0C9
:100A10008081482F29813A81C901880F991F820F4F
:100A2000931FFC01EF59FF4F8081282F30E081E0B8
:100A300090E0022E02C0880F991F0A94E2F7809579
:100A400084238C93DDC029813A81C901880F991FC5
:100A5000820F931FFC01EE59FF4F80818130F1F42A
:100A6000A7E3B0E0E7E3F0E08081482F29813A81F5
:100A7000C901880F991F820F931FFC01EF59FF4F87
:100A80008081282F30E081E090E0022E02C0880FA4
:100A9000991F0A94E2F7842B8C93B2C0A7E3B0E0CD
:100AA000E7E3F0E08081482F29813A81C901880F6E
:100AB000991F820F931FFC01EF59FF4F8081282F50
:100AC00030E081E090E0022E02C0880F991F0A9466
:100AD000E2F7809584238C9393C029813A81C901E0
:100AE000880F991F820F931FFC01EE59FF4F8081E1
:100AF0008130F1F4A4E3B0E0E4E3F0E08081482F3A
:100B000029813A81C901880F991F820F931FFC0127
:100B1000EF59FF4F8081282F30E081E090E0022ED6
:100B200002C0880F991F0A94E2F7842B8C9368C047
:100B3000A4E3B0E0E4E3F0E08081482F29813A812A
:100B4000C901880F991F820F931FFC01EF59FF4FB6
:100B50008081282F30E081E090E0022E02C0880FD3
:100B6000991F0A94E2F7809584238C9349C02981C8
:100B70003A81C901880F991F820F931FFC01EE591A
:100B8000FF4F80818130F1F4A1E3B0E0E1E3F0E0D8
:100B90008081482F29813A81C901880F991F820FCE
:100BA000931FFC01EF59FF4F8081282F30E081E037
:100BB00090E0022E02C0880F991F0A94E2F7842B5E
:100BC0008C931EC0A1E3B0E0E1E3F0E08081482F08
:100BD00029813A81C901880F991F820F931FFC0157
:100BE000EF59FF4F8081282F30E081E090E0022E06
:100BF00002C0880F991F0A94E2F7809584238C9392
:100C000089819A8101969A83898389819A818D311C
:100C1000910508F4A2CE0F900F900F900F90CF91F6
:100C2000DF910895DF93CF93CDB7DEB7A6E2B0E0B2
:100C3000E6E2F0E0808180688C93A6E2B0E0E6E234
:100C4000F0E0808180648C93A6E2B0E0E6E2F0E020
:100C50008081877F8C93A7E2B0E0E7E2F0E08081BB
:100C600080628C93A7E2B0E0E7E2F0E080818064EC
:100C70008C93A7E2B0E0E7E2F0E080818F778C937D
:100C8000A6E2B0E0E6E2F0E080818E7F8C93A6E2FF
:100C9000B0E0E6E2F0E0808182608C93A6E2B0E012
:100CA000E6E2F0E0808184608C93CF91DF9108953B
:100CB000DF93CF930F92CDB7DEB78983A7E2B0E081
:100CC000E7E2F0E08081982F907E8981892B8C93D8
:100CD000A6E2B0E0E6E2F0E0808180648C93E6E298
:100CE000F0E0808182958F70882F90E08170907005
:100CF0000097A9F3A6E2B0E0E6E2F0E0808180612F
:100D00008C93E4E2F0E0808191810F90CF91DF91AC
:100D100008950F931F93DF93CF93CDB7DEB7C056DF
:100D2000D0400FB6F894DEBF0FBECDBF83E161E0C7
:100D30000E94520384E160E00E94520385E160E07A
:100D40000E94520386E160E00E945203FE01E35AD2
:100D5000FF4F80E090E0A8ECB2E480839183A2830F
:100D6000B3838E01075A1F4FFE01E35AFF4F608184
:100D70007181828193812BEA3AEA4AEA50E40E9427
:100D80005921DC01CB01F80180839183A283B383D5
:100D9000FE01E75AFF4F608171818281938120E0DB
:100DA00030E040E85FE30E945F23882334F4FE01D3
:100DB000E85AFF4F81E08083E0C0FE01E75AFF4F11
:100DC000608171818281938120E030E04FE753E4BC
:100DD0000E94FF2218160CF0C0C0FE01E35AFF4F1C
:100DE000608171818281938120E030E04AE754E4A0
:100DF0000E945322DC01CB01FE01EC5AFF4F80839D
:100E00009183A283B3838E01005B1F4FFE01EC5AD6
:100E1000FF4F608171818281938120E030E04AE759
:100E200055E40E945921DC01CB01F80180839183B4
:100E3000A283B383FE01E05BFF4F608171818281F9
:100E4000938120E030E040E85FE30E945F23882345
:100E500044F4FE01E25BFF4F81E090E091838083E8
:100E600064C0FE01E05BFF4F6081718182819381EC
:100E700020E03FEF4FE757E40E94FF2218160CF0E6
:100E800043C0FE01EC5AFF4F6081718182819381E2
:100E900020E030E040E251E40E945921DC01CB0126
:100EA0008E01025B1F4FBC01CD010E943218DC0194
:100EB000CB01F801918380831FC0FE01E45BFF4FEB
:100EC00080E991E091838083FE01E45BFF4F8081A4
:100ED00091810197F1F7FE01E45BFF4F91838083DD
:100EE000DE01A25BBF4FFE01E25BFF4F808191817B
:100EF000019711969C938E93FE01E25BFF4F8081D8
:100F000091810097D1F64BC08E01025B1F4FFE010D
:100F1000E05BFF4F60817181828193810E94321872
:100F2000DC01CB01F80191838083DE01A65BBF4F1A
:100F3000FE01E25BFF4F8081918111969C938E931D
:100F4000FE01E65BFF4F808191810197F1F7FE0181
:100F5000E65BFF4F9183808322C08E01085A1F4FAA
:100F6000FE01E75AFF4F60817181828193810E9467
:100F70003218DC01CB01F8018083DE01A75BBF4F93
:100F8000FE01E85AFF4F80818C93FE01E75BFF4F23
:100F900080818A95F1F7FE01E75BFF4F808383E153
:100FA00060E00E94520384E161E00E94520385E107
:100FB00060E00E94520386E160E00E945203FE015D
:100FC000EB5BFF4F80E090E0A8ECB2E4808391837C
:100FD000A283B3838E010F5B1F4FFE01EB5BFF4FBC
:100FE00060817181828193812BEA3AEA4AEA50E476
:100FF0000E945921DC01CB01F80180839183A283F7
:10100000B383FE01EF5BFF4F608171818281938129
:1010100020E030E040E85FE30E945F23882334F45F
:1010200081E0FE01E05CFF4F80839DC0FE01EF5B2D
:10103000FF4F608171818281938120E030E04FE732
:1010400053E40E94FF2218160CF07EC0FE01EB5BF9
:10105000FF4F608171818281938120E030E04AE717
:1010600054E40E945322DC01CB018CAF9DAFAEAFA4
:10107000BFAF6CAD7DAD8EAD9FAD20E030E04AE7F7
:1010800055E40E945921DC01CB0188AF99AFAAAF8A
:10109000BBAF68AD79AD8AAD9BAD20E030E040E8F4
:1010A0005FE30E945F2388232CF481E090E09FABF4
:1010B0008EAB3FC068AD79AD8AAD9BAD20E03FEF10
:1010C0004FE757E40E94FF2218164CF56CAD7DAD3A
:1010D0008EAD9FAD20E030E040E251E40E94592106
:1010E000DC01CB01BC01CD010E943218DC01CB0137
:1010F0009FAB8EAB0FC080E991E09DAB8CAB8CA910
:101100009DA90197F1F79DAB8CAB8EA99FA9019783
:101110009FAB8EAB8EA99FA9009769F72DC068ADD4
:1011200079AD8AAD9BAD0E943218DC01CB019FAB3B
:101130008EAB8EA99FA99BAB8AAB8AA99BA901976D
:10114000F1F79BAB8AAB18C0FE01EF5BFF4F6081EC
:101150007181828193810E943218DC01CB01FE01F2
:10116000E05CFF4F8083FE01E05CFF4F808189AB34
:1011700089A98A95F1F789AB83E160E00E94520367
:1011800084E160E00E94520385E161E00E94520325
:1011900086E160E00E94520380E090E0A8ECB2E4B7
:1011A0008DA79EA7AFA7B8AB6DA57EA58FA598A963
:1011B0002BEA3AEA4AEA50E40E945921DC01CB01C9
:1011C00089A79AA7ABA7BCA769A57AA58BA59CA55B
:1011D00020E030E040E85FE30E945F2388231CF4B6
:1011E00081E088A791C069A57AA58BA59CA520E080
:1011F00030E04FE753E40E94FF2218160CF07BC04A
:101200006DA57EA58FA598A920E030E04AE754E4BB
:101210000E945322DC01CB018CA39DA3AEA3BFA3EC
:101220006CA17DA18EA19FA120E030E04AE755E4AA
:101230000E945921DC01CB0188A399A3AAA3BBA3D7
:1012400068A179A18AA19BA120E030E040E85FE39A
:101250000E945F2388232CF481E090E09F8F8E8F83
:101260003FC068A179A18AA19BA120E03FEF4FE791
:1012700057E40E94FF2218164CF56CA17DA18EA1A7
:101280009FA120E030E040E251E40E945921DC01BE
:10129000CB01BC01CD010E943218DC01CB019F8F34
:1012A0008E8F0FC080E991E09D8F8C8F8C8D9D8DEE
:1012B0000197F1F79D8F8C8F8E8D9F8D01979F8F5A
:1012C0008E8F8E8D9F8D009769F724C068A179A1BC
:1012D0008AA19BA10E943218DC01CB019F8F8E8FC7
:1012E0008E8D9F8D9B8F8A8F8A8D9B8D0197F1F7B5
:1012F0009B8F8A8F0FC069A57AA58BA59CA50E949C
:101300003218DC01CB0188A788A5898F898D8A9541
:10131000F1F7898F83E160E00E94520384E160E08D
:101320000E94520385E160E00E94520386E161E081
:101330000E94520380E090E0A8ECB2E48D8B9E8B7B
:10134000AF8BB88F6D897E898F89988D2BEA3AEAA9
:101350004AEA50E40E945921DC01CB01898B9A8B27
:10136000AB8BBC8B69897A898B899C8920E030E0C2
:1013700040E85FE30E945F2388231CF481E0888BB0
:1013800091C069897A898B899C8920E030E04FE798
:1013900053E40E94FF2218160CF07BC06D897E89F1
:1013A0008F89988D20E030E04AE754E40E94532270
:1013B000DC01CB018C879D87AE87BF876C857D85DF
:1013C0008E859F8520E030E04AE755E40E94592150
:1013D000DC01CB0188879987AA87BB8768857985D7
:1013E0008A859B8520E030E040E85FE30E945F2330
:1013F00088232CF481E090E09F838E833FC0688532
:1014000079858A859B8520E03FEF4FE757E40E946E
:10141000FF2218164CF56C857D858E859F8520E012
:1014200030E040E251E40E945921DC01CB01BC01D3
:10143000CD010E943218DC01CB019F838E830FC047
:1014400080E991E09D838C838C819D810197F1F7E8
:101450009D838C838E819F8101979F838E838E8154
:101460009F81009769F724C0688579858A859B8567
:101470000E943218DC01CB019F838E838E819F8175
:101480009B838A838A819B810197F1F79B838A835F
:101490000FC069897A898B899C890E943218DC0186
:1014A000CB01888B8889898389818A95F1F7898323
:1014B000C05ADF4F0FB6F894DEBF0FBECDBFCF913D
:1014C000DF911F910F910895DF93CF930F92CDB7C6
:1014D000DEB78CE161E00E9452038DE161E00E9481
:1014E00052038EE161E00E9452038FE161E00E94AD
:1014F000520388E160E00E94520389E160E00E94AB
:1015000052038AE160E00E9452038BE160E00E9496
:1015100052038CE10E943404009791F08DE10E9407
:101520003404009769F08EE10E943404009741F082
:101530008FE10E943404009719F081E0898301C093
:10154000198289810F90CF91DF910895DF93CF9316
:10155000CDB7DEB72E970FB6F894DEBF0FBECDBF66
:1015600080E090E0A8E4B3E48B879C87AD87BE87DA
:101570006B857C858D859E8520E030E04AE755E4CB
:101580000E945921DC01CB018F839887A987BA87F4
:101590006F81788589859A8520E030E040E85FE3B7
:1015A0000E945F2388232CF481E090E09E838D834A
:1015B0003FC06F81788589859A8520E03FEF4FE7AE
:1015C00057E40E94FF2218164CF56B857C858D85AB
:1015D0009E8520E030E040E251E40E945921DC0188
:1015E000CB01BC01CD010E943218DC01CB019E83EE
:1015F0008D830FC080E991E09C838B838B819C81DC
:101600000197F1F79C838B838D819E8101979E8347
:101610008D838D819E81009769F714C06F817885D5
:1016200089859A850E943218DC01CB019E838D83C7
:101630008D819E819A83898389819A810197F1F7AF
:101640009A83898383E30E94A90F82E30E94A90FF2
:1016500088E20E94A90F8FE00E94A90F86E00E94F5
:10166000A90F81E00E94A90F2E960FB6F894DEBF55
:101670000FBECDBFCF91DF9108950F931F93DF93DE
:10168000CF93CDB7DEB7C156D0400FB6F894DEBFCA
:101690000FBECDBFFE01EF59FF4F8083A8E3B0E03E
:1016A000E8E3F0E0808182608C93A8E3B0E0E8E3B7
:1016B000F0E080818B7F8C93FE01EF59FF4F80819A
:1016C00082958F70882F90E081709070882329F028
:1016D00084E061E00E94520304C084E060E00E9464
:1016E0005203FE01EF59FF4F8081829586958770E6
:1016F000882F90E081709070882329F085E061E068
:101700000E94520304C085E060E00E945203FE0183
:10171000EF59FF4F80818295869586958370882F3B
:1017200090E081709070882329F086E061E00E944B
:10173000520304C086E060E00E945203FE01EF59AC
:10174000FF4F808188232CF487E061E00E945203E0
:1017500004C087E060E00E945203A8E3B0E0E8E341
:10176000F0E0808180648C93FE01E35AFF4F80E0BB
:1017700090E0A0E2B1E480839183A283B3838E01E1
:10178000075A1F4FFE01E35AFF4F6081718182812A
:1017900093812BEA3AEA4AEA50E40E945921DC019B
:1017A000CB01F80180839183A283B383FE01E75AC2
:1017B000FF4F608171818281938120E030E040E8B9
:1017C0005FE30E945F23882334F4FE01E85AFF4F51
:1017D00081E08083E0C0FE01E75AFF4F60817181A4
:1017E0008281938120E030E04FE753E40E94FF22A2
:1017F00018160CF0C0C0FE01E35AFF4F60817181E2
:101800008281938120E030E04AE754E40E94532231
:10181000DC01CB01FE01EC5AFF4F80839183A28350
:10182000B3838E01005B1F4FFE01EC5AFF4F6081B6
:1018300071818281938120E030E04AE755E40E9483
:101840005921DC01CB01F80180839183A283B3830A
:10185000FE01E05BFF4F608171818281938120E016
:1018600030E040E85FE30E945F23882344F4FE01F8
:10187000E25BFF4F81E090E09183808364C0FE01D2
:10188000E05BFF4F608171818281938120E03FEFB7
:101890004FE757E40E94FF2218160CF043C0FE01E8
:1018A000EC5AFF4F608171818281938120E030E0AA
:1018B00040E251E40E945921DC01CB018E01025B20
:1018C0001F4FBC01CD010E943218DC01CB01F80191
:1018D000918380831FC0FE01E45BFF4F80E991E0AC
:1018E00091838083FE01E45BFF4F808191810197AA
:1018F000F1F7FE01E45BFF4F91838083DE01A25B81
:10190000BF4FFE01E25BFF4F8081918101971196ED
:101910009C938E93FE01E25BFF4F80819181009743
:10192000D1F64BC08E01025B1F4FFE01E05BFF4F03
:1019300060817181828193810E943218DC01CB0128
:10194000F80191838083DE01A65BBF4FFE01E25B5D
:10195000FF4F8081918111969C938E93FE01E65BEF
:10196000FF4F808191810197F1F7FE01E65BFF4F08
:101970009183808322C08E01085A1F4FFE01E75ACF
:10198000FF4F60817181828193810E943218DC0156
:10199000CB01F8018083DE01A75BBF4FFE01E85A4F
:1019A000FF4F80818C93FE01E75BFF4F80818A951A
:1019B000F1F7FE01E75BFF4F8083A8E3B0E0E8E3C7
:1019C000F0E080818F7B8C93FE01EB5BFF4F80E02A
:1019D00090E0A8E4B3E480839183A283B3838E0173
:1019E0000F5B1F4FFE01EB5BFF4F608171818281B6
:1019F00093812BEA3AEA4AEA50E40E945921DC0139
:101A0000CB01F80180839183A283B383FE01EF5B56
:101A1000FF4F608171818281938120E030E040E856
:101A20005FE30E945F23882334F481E0FE01E05CE1
:101A3000FF4F80839DC0FE01EF5BFF4F608171818E
:101A40008281938120E030E04FE753E40E94FF223F
:101A500018160CF07EC0FE01EB5BFF4F60817181B8
:101A60008281938120E030E04AE754E40E945322CF
:101A7000DC01CB018CAF9DAFAEAFBFAF6CAD7DAD28
:101A80008EAD9FAD20E030E04AE755E40E94592139
:101A9000DC01CB0188AF99AFAAAFBBAF68AD79AD20
:101AA0008AAD9BAD20E030E040E85FE30E945F2319
:101AB00088232CF481E090E09FAB8EAB3FC068ADF3
:101AC00079AD8AAD9BAD20E03FEF4FE757E40E9430
:101AD000FF2218164CF56CAD7DAD8EAD9FAD20E0AC
:101AE00030E040E251E40E945921DC01CB01BC010D
:101AF000CD010E943218DC01CB019FAB8EAB0FC031
:101B000080E991E09DAB8CAB8CA99DA90197F1F781
:101B10009DAB8CAB8EA99FA901979FAB8EAB8EA975
:101B20009FA9009769F72DC068AD79AD8AAD9BADCF
:101B30000E943218DC01CB019FAB8EAB8EA99FA90E
:101B40009BAB8AAB8AA99BA90197F1F79BAB8AABA8
:101B500018C0FE01EF5BFF4F60817181828193812C
:101B60000E943218DC01CB01FE01E05CFF4F808354
:101B7000FE01E05CFF4F808189AB89A98A95F1F76E
:101B800089ABFE01EF59FF4F8081882F90E0817073
:101B90009070882329F084E061E00E94520304C021
:101BA00084E060E00E945203FE01EF59FF4F808104
:101BB0008695882F90E081709070882329F085E0C9
:101BC00061E00E94520304C085E060E00E9452037D
:101BD000FE01EF59FF4F808186958695882F90E012
:101BE00081709070882329F086E061E00E945203A2
:101BF00004C086E060E00E945203FE01EF59FF4FEF
:101C00008081869586958695882F90E0817090706A
:101C1000882329F087E061E00E94520304C087E036
:101C200060E00E945203A8E3B0E0E8E3F0E08081C6
:101C300080648C9380E090E0A0E2B1E48DA79EA741
:101C4000AFA7B8AB6DA57EA58FA598A92BEA3AEAF8
:101C50004AEA50E40E945921DC01CB0189A79AA7E6
:101C6000ABA7BCA769A57AA58BA59CA520E030E011
:101C700040E85FE30E945F2388231CF481E088A78B
:101C800091C069A57AA58BA59CA520E030E04FE71F
:101C900053E40E94FF2218160CF07BC06DA57EA5B0
:101CA0008FA598A920E030E04AE754E40E9453222F
:101CB000DC01CB018CA39DA3AEA3BFA36CA17DA12E
:101CC0008EA19FA120E030E04AE755E40E9459210F
:101CD000DC01CB0188A399A3AAA3BBA368A179A126
:101CE0008AA19BA120E030E040E85FE30E945F23EF
:101CF00088232CF481E090E09F8F8E8F3FC068A1F5
:101D000079A18AA19BA120E03FEF4FE757E40E9411
:101D1000FF2218164CF56CA17DA18EA19FA120E099
:101D200030E040E251E40E945921DC01CB01BC01CA
:101D3000CD010E943218DC01CB019F8F8E8F0FC026
:101D400080E991E09D8F8C8F8C8D9D8D0197F1F7AF
:101D50009D8F8C8F8E8D9F8D01979F8F8E8F8E8DF7
:101D60009F8D009769F724C068A179A18AA19BA1E2
:101D70000E943218DC01CB019F8F8E8F8E8D9F8D3C
:101D80009B8F8A8F8A8D9B8D0197F1F79B8F8A8F0E
:101D90000FC069A57AA58BA59CA50E943218DC010D
:101DA000CB0188A788A5898F898D8A95F1F7898FBE
:101DB000A8E3B0E0E8E3F0E080818F7B8C9380E0E3
:101DC00090E0A8E4B3E48D8B9E8BAF8BB88F6D89C8
:101DD0007E898F89988D2BEA3AEA4AEA50E40E947C
:101DE0005921DC01CB01898B9A8BAB8BBC8B698928
:101DF0007A898B899C8920E030E040E85FE30E948B
:101E00005F2388231CF481E0888B91C069897A89DB
:101E10008B899C8920E030E04FE753E40E94FF2249
:101E200018160CF07BC06D897E898F89988D20E013
:101E300030E04AE754E40E945322DC01CB018C8756
:101E40009D87AE87BF876C857D858E859F8520E0C9
:101E500030E04AE755E40E945921DC01CB01888734
:101E60009987AA87BB87688579858A859B8520E0C5
:101E700030E040E85FE30E945F2388232CF481E098
:101E800090E09F838E833FC0688579858A859B8596
:101E900020E03FEF4FE757E40E94FF2218164CF571
:101EA0006C857D858E859F8520E030E040E251E4A1
:101EB0000E945921DC01CB01BC01CD010E943218E6
:101EC000DC01CB019F838E830FC080E991E09D836D
:101ED0008C838C819D810197F1F79D838C838E810A
:101EE0009F8101979F838E838E819F81009769F7E1
:101EF00024C0688579858A859B850E943218DC011B
:101F0000CB019F838E838E819F819B838A838A816D
:101F10009B810197F1F79B838A830FC069897A8936
:101F20008B899C890E943218DC01CB01888B8889BF
:101F3000898389818A95F1F78983CF59DF4F0FB65D
:101F4000F894DEBF0FBECDBFCF91DF911F910F91EF
:101F500008950F931F93DF93CF93CDB7DEB7C1568C
:101F6000D0400FB6F894DEBF0FBECDBFFE01EF59D3
:101F7000FF4F8083A8E3B0E0E8E3F0E080818D7F4D
:101F80008C93A8E3B0E0E8E3F0E080818B7F8C9352
:101F9000FE01EF59FF4F808182958F70882F90E06E
:101FA00081709070882329F084E061E00E945203E0
:101FB00004C084E060E00E945203FE01EF59FF4F2D
:101FC0008081829586958770882F90E081709070CF
:101FD000882329F085E061E00E94520304C085E077
:101FE00060E00E945203FE01EF59FF4F808182950D
:101FF000869586958370882F90E0817090708823F5
:1020000029F086E061E00E94520304C086E060E0AF
:102010000E945203FE01EF59FF4F808188232CF468
:1020200087E061E00E94520304C087E060E00E9404
:102030005203A8E3B0E0E8E3F0E0808180648C9391
:10204000FE01E35AFF4F80E090E0A0E2B1E480831C
:102050009183A283B3838E01075A1F4FFE01E35A77
:10206000FF4F60817181828193812BEA3AEA4AEACB
:1020700050E40E945921DC01CB01F8018083918357
:10208000A283B383FE01E75AFF4F60817181828191
:10209000938120E030E040E85FE30E945F238823E3
:1020A00034F4FE01E85AFF4F81E08083E0C0FE0176
:1020B000E75AFF4F608171818281938120E030E097
:1020C0004FE753E40E94FF2218160CF0C0C0FE0137
:1020D000E35AFF4F608171818281938120E030E07B
:1020E0004AE754E40E945322DC01CB01FE01EC5A82
:1020F000FF4F80839183A283B3838E01005B1F4FC8
:10210000FE01EC5AFF4F608171818281938120E052
:1021100030E04AE755E40E945921DC01CB01F80187
:1021200080839183A283B383FE01E05BFF4F6081D4
:1021300071818281938120E030E040E85FE30E947A
:102140005F23882344F4FE01E25BFF4F81E090E0CF
:102150009183808364C0FE01E05BFF4F60817181E9
:102160008281938120E03FEF4FE757E40E94FF22F6
:1021700018160CF043C0FE01EC5AFF4F60817181CC
:102180008281938120E030E040E251E40E945921B5
:10219000DC01CB018E01025B1F4FBC01CD010E940F
:1021A0003218DC01CB01F801918380831FC0FE014E
:1021B000E45BFF4F80E991E091838083FE01E45B63
:1021C000FF4F808191810197F1F7FE01E45BFF4FA2
:1021D00091838083DE01A25BBF4FFE01E25BFF4F74
:1021E00080819181019711969C938E93FE01E25B11
:1021F000FF4F808191810097D1F64BC08E01025B29
:102200001F4FFE01E05BFF4F6081718182819381EE
:102210000E943218DC01CB01F80191838083DE013A
:10222000A65BBF4FFE01E25BFF4F8081918111965B
:102230009C938E93FE01E65BFF4F80819181019715
:10224000F1F7FE01E65BFF4F9183808322C08E0190
:10225000085A1F4FFE01E75AFF4F6081718182814A
:1022600093810E943218DC01CB01F8018083DE01EA
:10227000A75BBF4FFE01E85AFF4F80818C93FE01A0
:10228000E75BFF4F80818A95F1F7FE01E75BFF4F27
:102290008083A8E3B0E0E8E3F0E080818F7B8C935B
:1022A000FE01EB5BFF4F80E090E0AAEFB4E4808397
:1022B0009183A283B3838E010F5B1F4FFE01EB5B03
:1022C000FF4F60817181828193812BEA3AEA4AEA69
:1022D00050E40E945921DC01CB01F80180839183F5
:1022E000A283B383FE01EF5BFF4F60817181828126
:1022F000938120E030E040E85FE30E945F23882381
:1023000034F481E0FE01E05CFF4F80839DC0FE015C
:10231000EF5BFF4F608171818281938120E030E02B
:102320004FE753E40E94FF2218160CF07EC0FE0116
:10233000EB5BFF4F608171818281938120E030E00F
:102340004AE754E40E945322DC01CB018CAF9DAFDD
:10235000AEAFBFAF6CAD7DAD8EAD9FAD20E030E0D8
:102360004AE755E40E945921DC01CB0188AF99AFBF
:10237000AAAFBBAF68AD79AD8AAD9BAD20E030E0D0
:1023800040E85FE30E945F2388232CF481E090E023
:102390009FAB8EAB3FC068AD79AD8AAD9BAD20E001
:1023A0003FEF4FE757E40E94FF2218164CF56CAD43
:1023B0007DAD8EAD9FAD20E030E040E251E40E9463
:1023C0005921DC01CB01BC01CD010E943218DC0196
:1023D000CB019FAB8EAB0FC080E991E09DAB8CAB86
:1023E0008CA99DA90197F1F79DAB8CAB8EA99FA9F4
:1023F00001979FAB8EAB8EA99FA9009769F72DC05F
:1024000068AD79AD8AAD9BAD0E943218DC01CB017D
:102410009FAB8EAB8EA99FA99BAB8AAB8AA99BA9C8
:102420000197F1F79BAB8AAB18C0FE01EF5BFF4F42
:1024300060817181828193810E943218DC01CB011D
:10244000FE01E05CFF4F8083FE01E05CFF4F808176
:1024500089AB89A98A95F1F789ABFE01EF59FF4F46
:102460008081882F90E081709070882329F084E02B
:1024700061E00E94520304C084E060E00E945203C5
:10248000FE01EF59FF4F80818695882F90E0817083
:102490009070882329F085E061E00E94520304C017
:1024A00085E060E00E945203FE01EF59FF4F8081FA
:1024B00086958695882F90E081709070882329F00A
:1024C00086E061E00E94520304C086E060E00E9462
:1024D0005203FE01EF59FF4F8081869586958695C0
:1024E000882F90E081709070882329F087E061E068
:1024F0000E94520304C087E060E00E945203A8E3F8
:10250000B0E0E8E3F0E0808180648C9380E090E0CC
:10251000A0E2B1E48DA79EA7AFA7B8AB6DA57EA53D
:102520008FA598A92BEA3AEA4AEA50E40E94592179
:10253000DC01CB0189A79AA7ABA7BCA769A57AA59F
:102540008BA59CA520E030E040E85FE30E945F237C
:1025500088231CF481E088A791C069A57AA58BA582
:102560009CA520E030E04FE753E40E94FF221816BC
:102570000CF07BC06DA57EA58FA598A920E030E06A
:102580004AE754E40E945322DC01CB018CA39DA3B3
:10259000AEA3BFA36CA17DA18EA19FA120E030E0DE
:1025A0004AE755E40E945921DC01CB0188A399A395
:1025B000AAA3BBA368A179A18AA19BA120E030E0D6
:1025C00040E85FE30E945F2388232CF481E090E0E1
:1025D0009F8F8E8F3FC068A179A18AA19BA120E027
:1025E0003FEF4FE757E40E94FF2218164CF56CA10D
:1025F0007DA18EA19FA120E030E040E251E40E9445
:102600005921DC01CB01BC01CD010E943218DC0153
:10261000CB019F8F8E8F0FC080E991E09D8F8C8FB3
:102620008C8D9D8D0197F1F79D8F8C8F8E8D9F8D59
:1026300001979F8F8E8F8E8D9F8D009769F724C095
:1026400068A179A18AA19BA10E943218DC01CB016B
:102650009F8F8E8F8E8D9F8D9B8F8A8F8A8D9B8D66
:102660000197F1F79B8F8A8F0FC069A57AA58BA57B
:102670009CA50E943218DC01CB0188A788A5898F10
:10268000898D8A95F1F7898FA8E3B0E0E8E3F0E05F
:1026900080818F7B8C9380E090E0AAEFB4E48D8BF7
:1026A0009E8BAF8BB88F6D897E898F89988D2BEA31
:1026B0003AEA4AEA50E40E945921DC01CB01898BB5
:1026C0009A8BAB8BBC8B69897A898B899C8920E03A
:1026D00030E040E85FE30E945F2388231CF481E040
:1026E000888B91C069897A898B899C8920E030E048
:1026F0004FE753E40E94FF2218160CF07BC06D894F
:102700007E898F89988D20E030E04AE754E40E946A
:102710005322DC01CB018C879D87AE87BF876C85F8
:102720007D858E859F8520E030E04AE755E40E9454
:102730005921DC01CB0188879987AA87BB876885E7
:1027400079858A859B8520E030E040E85FE30E9440
:102750005F2388232CF481E090E09F838E833FC029
:10276000688579858A859B8520E03FEF4FE757E4B0
:102770000E94FF2218164CF56C857D858E859F85FD
:1027800020E030E040E251E40E945921DC01CB011D
:10279000BC01CD010E943218DC01CB019F838E83E6
:1027A0000FC080E991E09D838C838C819D8101978E
:1027B000F1F79D838C838E819F8101979F838E8308
:1027C0008E819F81009769F724C0688579858A8505
:1027D0009B850E943218DC01CB019F838E838E8102
:1027E0009F819B838A838A819B810197F1F79B83D9
:1027F0008A830FC069897A898B899C890E943218E3
:10280000DC01CB01888B8889898389818A95F1F7DE
:102810008983CF59DF4F0FB6F894DEBF0FBECDBF0F
:10282000CF91DF911F910F910895DF93CF9300D047
:1028300000D0CDB7DEB79C838B831A8219821A82AF
:1028400019820FC029813A818B819C81FC01E20FA2
:10285000F31F80810E943D0B89819A8101969A83A2
:10286000898329813A818B819C81FC01E20FF31FCE
:102870008081882339F70F900F900F900F90CF91A0
:10288000DF910895DF93CF93CDB7DEB76D970FB685
:10289000F894DEBF0FBECDBF8D8FE5E3F0E08D8DE8
:1028A0008083A2E3B0E0E2E3F0E0808181608C937A
:1028B00080E090E0A0E0B0E4898F9A8FAB8FBC8F6E
:1028C000698D7A8D8B8D9C8D20E030E04AE755E450
:1028D0000E945921DC01CB018D8B9E8BAF8BB88F71
:1028E0006D897E898F89988D20E030E040E85FE334
:1028F0000E945F2388232CF481E090E09C8B8B8BDB
:102900003FC06D897E898F89988D20E03FEF4FE72A
:1029100057E40E94FF2218164CF5698D7A8D8B8D35
:102920009C8D20E030E040E251E40E945921DC011E
:10293000CB01BC01CD010E943218DC01CB019C8B84
:102940008B8B0FC080E991E09A8B898B89899A895A
:102950000197F1F79A8B898B8B899C8901979C8BC6
:102960008B8B8B899C89009769F714C06D897E8950
:102970008F89988D0E943218DC01CB019C8B8B8B48
:102980008B899C89988B8F878F8598890197F1F720
:10299000988B8F87A2E3B0E0E2E3F0E080818B7F49
:1029A0008C93A2E3B0E0E2E3F0E080818D7F8C9332
:1029B00080E090E0A0E0B0E48B879C87AD87BE8785
:1029C0006B857C858D859E8520E030E04AE755E467
:1029D0000E945921DC01CB018F839887A987BA8790
:1029E0006F81788589859A8520E030E040E85FE353
:1029F0000E945F2388232CF481E090E09E838D83E6
:102A00003FC06F81788589859A8520E03FEF4FE749
:102A100057E40E94FF2218164CF56B857C858D8546
:102A20009E8520E030E040E251E40E945921DC0123
:102A3000CB01BC01CD010E943218DC01CB019E8389
:102A40008D830FC080E991E09C838B838B819C8177
:102A50000197F1F79C838B838D819E8101979E83E3
:102A60008D838D819E81009769F714C06F81788571
:102A700089859A850E943218DC01CB019E838D8363
:102A80008D819E819A83898389819A810197F1F74B
:102A90009A8389836D960FB6F894DEBF0FBECDBFC3
:102AA000CF91DF910895DF93CF93CDB7DEB76D97C8
:102AB0000FB6F894DEBF0FBECDBF8D8FE5E3F0E01B
:102AC0008D8D808380E090E0A0E0B0E4898F9A8FC4
:102AD000AB8FBC8F698D7A8D8B8D9C8D20E030E023
:102AE0004AE755E40E945921DC01CB018D8B9E8B76
:102AF000AF8BB88F6D897E898F89988D20E030E00B
:102B000040E85FE30E945F2388232CF481E090E09B
:102B10009C8B8B8B3FC06D897E898F89988D20E03F
:102B20003FEF4FE757E40E94FF2218164CF5698DDE
:102B30007A8D8B8D9C8D20E030E040E251E40E9444
:102B40005921DC01CB01BC01CD010E943218DC010E
:102B5000CB019C8B8B8B0FC080E991E09A8B898B8A
:102B600089899A890197F1F79A8B898B8B899C893E
:102B700001979C8B8B8B8B899C89009769F714C07C
:102B80006D897E898F89988D0E943218DC01CB0176
:102B90009C8B8B8B8B899C89988B8F878F85988951
:102BA0000197F1F7988B8F87A2E3B0E0E2E3F0E0C2
:102BB000808181608C93A2E3B0E0E2E3F0E0808169
:102BC00084608C93A2E3B0E0E2E3F0E080818D7F4B
:102BD0008C9380E090E0A0E0B0E48B879C87AD8789
:102BE000BE876B857C858D859E8520E030E04AE739
:102BF00055E40E945921DC01CB018F839887A98776
:102C0000BA876F81788589859A8520E030E040E831
:102C10005FE30E945F2388232CF481E090E09E8391
:102C20008D833FC06F81788589859A8520E03FEF4D
:102C30004FE757E40E94FF2218164CF56B857C8500
:102C40008D859E8520E030E040E251E40E945921CC
:102C5000DC01CB01BC01CD010E943218DC01CB01AB
:102C60009E838D830FC080E991E09C838B838B8151
:102C70009C810197F1F79C838B838D819E810197C5
:102C80009E838D838D819E81009769F714C06F812B
:102C9000788589859A850E943218DC01CB019E8354
:102CA0008D838D819E819A83898389819A81019701
:102CB000F1F79A838983A2E3B0E0E2E3F0E0808158
:102CC0008E7F8C936D960FB6F894DEBF0FBECDBF8E
:102CD000CF91DF910895DF93CF9300D000D0CDB78F
:102CE000DEB780E1898388EB8A8380E48B838FE37E
:102CF0008C8381E090E00E94CA161092EA01109243
:102D0000E90115C02091E9013091EA01CE01019657
:102D1000FC01E20FF31F80810E9442148091E901BF
:102D20009091EA0101969093EA018093E9018091E4
:102D3000E9019091EA018430910524F380E090E06C
:102D40000E94CA161092EA011092E90115C0209162
:102D5000E9013091EA01CE010196FC01E20FF31F77
:102D600080810E9442148091E9019091EA010196CC
:102D70009093EA018093E9018091E9019091EA0141
:102D80008430910524F30F900F900F900F90CF9106
:102D9000DF910895DF93CF9300D0CDB7DEB79A834C
:102DA000898389819A818130910579F4A2E3B0E029
:102DB000E2E3F0E0808180618C93A2E3B0E0E2E3A3
:102DC000F0E08081877F8C930EC0A2E3B0E0E2E365
:102DD000F0E080818F7E8C93A2E3B0E0E2E3F0E04C
:102DE000808188608C930F900F90CF91DF91089530
:102DF000DF93CF9300D000D000D0CDB7DEB79E8355
:102E00008D831C821B8238C080E090E00E94CA162D
:102E10008B81886B0E94421480E40E9442141A82C3
:102E2000198220C089819A818034910559F481E00A
:102E300090E00E94CA168B81886B0E94421480E445
:102E40000E944214ED81FE8120818D819E81019638
:102E50009E838D83822F0E94531589819A810196CA
:102E60009A83898389819A8180389105DCF28B81EC
:102E70009C8101969C838B838B819C8188309105FA
:102E80001CF226960FB6F894DEBF0FBECDBFCF91D1
:102E9000DF9108952F923F924F925F926F927F92AF
:102EA0008F929F92AF92BF92CF92DF92EF92FF925A
:102EB0000F931F93DF93CF93CDB7DEB7E3970FB692
:102EC000F894DEBF0FBECDBF0E94A2040E9488020C
:102ED0000E94A60AE2E3F0E08FEF808388EC0E9474
:102EE0007A02A9E5B0E0E9E5F0E0808184608C93A6
:102EF000EFE4F0E01082789489859A852D853E85EF
:102F00004B855C85FE013F96DE015796B9019F0116
:102F10008D010E9422012F88388C498C5A8C6B8C31
:102F20007C8C8D8C9E8C20E034E244EF50E060E09D
:102F300070E080E090E0A22CB32CC42CD52CE62CC1
:102F4000F72C082D192D0E943A19A22EB32EC42E4B
:102F5000D52EE62EF72E082F192F2A2D3B2D4C2D7E
:102F60005D2D6E2D7F2D802F912F2D833E834F83DE
:102F70005887AF84B888C988DA88EB88FC880D89BF
:102F80001E892A2D3B2D4C2D5D2D6E2D7F2D802FE2
:102F9000912F0E945E183B014C01AF88B88CC98C00
:102FA000DA8CEB8CFC8C0D8D1E8D2A2D3B2D4C2D3F
:102FB0005D2D6E2D7F2D802F912F0E945E189B011D
:102FC000AC01C401B3010E945322DC01CB01BC015E
:102FD000CD0120E030E048EC52E40E945921DC01B0
:102FE000CB0189839A83AB83BC838D819E81AF8122
:102FF000B8859E01215E3F4FBC01CD01A9012AE0A9
:1030000030E00E944F2769817A818B819C810E94E8
:10301000ED23DC01CB019E01235D3F4FB9014AE066
:1030200050E00E942E2780E80E94A90F87EB90E0D5
:103030000E941514CE014F960E9415148EEB90E05D
:103040000E94151480EC0E94A90F86EC90E00E946B
:103050001514CE018D960E9415148DEC90E00E94FF
:1030600015144ACFEF92FF920F931F937B018C01AF
:1030700020E030E040E05FE40E942F2388238CF0C2
:10308000C801B70120E030E040E05FE40E94FB208F
:103090000E94ED239B01AC0120503040404050483D
:1030A00006C0C801B7010E94ED239B01AC01B90124
:1030B000CA011F910F91FF90EF900895A2E0B0E038
:1030C000E4E6F8E10C94D427122FB32EA42E952E0B
:1030D000862E372E282E9A83C22ED32EE42EF52E3E
:1030E000A701960160E070E080E090E02117A1F474
:1030F0003B1591F44A1581F4591571F4681561F482
:10310000731551F4821541F4AA819A1729F4C70165
:10311000B6010E944124AAC0212F3B2D4A2D592DD2
:10312000682D732D822D9A8100E20E94BA24C90174
:10313000DA018030E0E09E07E1E0AE07E0E0BE07A4
:1031400080F48F3F9105A105B10531F028F028E00A
:1031500030E040E050E016C020E030E040E050E0D9
:1031600011C08030F0E09F07F0E0AF07F1E0BF074B
:1031700028F028E130E040E050E004C020E130E0F9
:1031800040E050E0022E04C0B695A795979587952C
:103190000A94D2F7FC01E252FF4F808129013A01E3
:1031A000480E511C611C711C4982212F3B2D4A2D58
:1031B000592D682D732D822D9A81042D0E94BA24D9
:1031C000C901DA014C015D0180E290E084199509A2
:1031D00004C0CC0CDD1CEE1CFF1C8A95D2F7C11478
:1031E000D104E104F10441F081E090E0A0E0B0E01E
:1031F000882A992AAA2ABB2A90E249165104610416
:10320000710459F40F2EF0E0EF2EF0E0FF2EF0E8FD
:103210000F2FFFE41F2FF02D21C0AFE14A165104FC
:103220006104710459F40F2EF0E0EF2EF0E0FF2E50
:10323000F0E00F2FFFE41F2FF02D10C061E070E0D1
:1032400080E090E0098004C0660F771F881F991FF7
:103250000A94D2F70E948F237B018C01C501B4012F
:103260000E944124A80197010E9459212296E2E17F
:103270000C94F027AEE5B0E0E0E4F9E10C94D4273B
:10328000A8E04E010894811C911CF4016A2E119251
:103290006A94E9F729833A834B835C836D837E8349
:1032A0008F839887CE010996FC011192AA95E9F7C0
:1032B000A986BA86CB86DC86ED86FE860F87188BBC
:1032C00029843A844B845C84ED84FE840F851889BC
:1032D00069807A808B809C806DA67EA68FA698AA36
:1032E0006D807E808F809884E114F10401051105C2
:1032F00009F0B3C3621473048404950408F03DC15B
:1033000000E0201600E0300601E0400600E0500634
:1033100088F41FEF211631044104510439F030F0D4
:1033200048E0E42EF12C012D112D18C0EE24FF24CD
:10333000870114C020E0221620E0320620E0420679
:1033400021E0520630F038E1E32EF12C012D112D51
:1033500005C020E1E22EF12C012D112DD201C10179
:103360000E2C04C0B695A795979587950A94D2F729
:1033700082529F4FDC012C9180E290E0A0E0B0E00F
:103380008E199F09A00BB10B7C018D01E21AF10887
:1033900001091109E114F10401051105A1F10E2C37
:1033A00004C0220C331C441C551C0A94D2F7A401FF
:1033B00093010E2C04C0220F331F441F551F0A9483
:1033C000D2F780E290E08E199F096DA47EA48FA4AD
:1033D00098A804C096948794779467948A95D2F7B6
:1033E000622A732A842A952AADA4BEA4CFA4D8A8A1
:1033F00004C0AA0CBB1CCC1CDD1CEA94D2F7ADA601
:10340000BEA6CFA6D8AA6201EE24FF24CDAADEAACA
:10341000EFAAF8AE920181012070307009AF1AAFA7
:103420002BAF3CAFC401B301A70196010E94B227A4
:103430007B018C01C401B3012DA93EA94FA958AD50
:103440000E94B227C901DA013C014D01C401B30158
:1034500029AD3AAD4BAD5CAD0E9493279B01AC0109
:103460008701FF24EE24ADA4BEA4CFA4D8A8C60132
:10347000AA27BB2757016801A82AB92ACA2ADB2A2A
:10348000A216B306C406D506E0F4089461087108D4
:1034900081089108A20CB31CC41CD51CA214B3044F
:1034A000C404D50470F0A216B306C406D50648F4C9
:1034B00008946108710881089108A20CB31CC41C0F
:1034C000D51CA21AB30AC40AD50AC601B5012DA992
:1034D0003EA94FA958AD0E94B2277B018C01C601BD
:1034E000B5012DA93EA94FA958AD0E94B227C90127
:1034F000DA015C016D01C601B50129AD3AAD4BADF4
:103500005CAD0E9493279B01AC018701FF24EE2450
:103510008DA59EA5AFA5B8A9A070B070E82AF92A1C
:103520000A2B1B2BE216F30604071507C0F40894B8
:10353000A108B108C108D108E20CF31C041D151D37
:10354000E214F3040405150550F0E216F30604072F
:10355000150728F40894A108B108C108D108D301BF
:103560009927882786017501E82AF92A0A2B1B2B3F
:10357000E9AAFAAA0BAB1CABCFC421143104410455
:10358000510471F461E070E080E090E020E030E010
:1035900040E050E00E94B227C901DA011C012D0170
:1035A00000E0201600E0300601E0400600E0500692
:1035B00088F41FEF211631044104510431F028F042
:1035C00048E050E060E070E017C040E050E060E0AC
:1035D00070E012C020E0221620E0320620E0420611
:1035E00021E0520628F048E150E060E070E004C0BD
:1035F00040E150E060E070E0D201C101042E04C05F
:10360000B695A795979587950A94D2F782529F4FC2
:10361000DC012C91E0E2EE2EF12C012D112DD801D0
:10362000C701841B950BA60BB70B821B9109A1093F
:10363000B1090097A105B10561F464015301A21815
:10364000B308C408D50831E0632E712C812C912C6D
:103650001EC16F968FAF6F97082E04C0220C331CCB
:10366000441C551C0A94D2F7EE2DE81B640153014B
:103670000E2E04C0D694C794B794A7940A94D2F798
:10368000A40193016F960FAC6F9704C0220F331FF4
:10369000441F551F0A94D2F76DA47EA48FA498A846
:1036A0000E2E04C096948794779467940A94D2F768
:1036B00084017301E22AF32A042B152BE9A6FAA64A
:1036C0000BA71CA732018824992492018101207044
:1036D000307021960CAF1DAF2EAF3FAF2197C601C2
:1036E000B501A40193010E94B2277B018C01C601A0
:1036F000B501A40193010E94B227C901DA01259600
:103700008CAF9DAFAEAFBFAF2597BC01CD01219669
:103710002CAD3DAD4EAD5FAD21970E9493279B012F
:10372000AC018701FF24EE24A9A4BAA4CBA4DCA495
:10373000C601AA27BB275C016D01AE28BF28C02A9D
:10374000D12AA216B306C406D50660F525966CAD3F
:103750007DAD8EAD9FAD259761507040804090400B
:1037600025966CAF7DAF8EAF9FAF2597A20CB31C93
:10377000C41CD51CA214B304C404D50498F0A2162A
:10378000B306C406D50670F4615070408040904086
:1037900025966CAF7DAF8EAF9FAF2597A20CB31C63
:1037A000C41CD51CA21AB30AC40AD50AC601B501A5
:1037B000A40193010E94B2277B018C01C601B501CF
:1037C000A40193010E94B227C901DA013C014D0115
:1037D000C401B30121962CAD3DAD4EAD5FAD219737
:1037E0000E9493279B01AC018701FF24EE2489A549
:1037F0009AA5ABA5BCA5A070B07057016801A82A16
:10380000B92ACA2ADB2AA216B306C406D506E0F4F2
:1038100008946108710881089108A20CB31CC41CAB
:10382000D51CA214B304C404D50470F0A216B306C8
:10383000C406D50648F40894610871088108910807
:10384000A20CB31CC41CD51C8DA59EA5AFA5B8A900
:103850006F960FAC6F9704C0880F991FAA1FBB1FEC
:103860000A94D2F78DA79EA7AFA7B8ABA21AB30A46
:10387000C40AD50A2596ECACFDAC0EAD1FAD25975C
:10388000D70199278827682A792A8A2A9B2A8201C0
:103890002227332729960CAF1DAF2EAF3FAF2997B4
:1038A000A2019101407050702D962CAF3DAF4EAFEC
:1038B0005FAF2D97C601B50129962CAD3DAD4EAD3C
:1038C0005FAD29970E94B2277B018C01C601B5012B
:1038D00029962CAD3DAD4EAD5FAD29970E94B22724
:1038E000C901DA0161968CAF9DAFAEAFBFAF6197F2
:1038F000BC01CD012D962CAD3DAD4EAD5FAD2D97EC
:103900000E9493279B01AC018701FF24EE24ADA404
:10391000BEA4CFA4D8A8C601AA27BB275701680117
:10392000A82AB92ACA2ADB2AA216B306C406D506D3
:1039300060F561966CAD7DAD8EAD9FAD61976150C8
:1039400070408040904061966CAF7DAF8EAF9FAF6E
:103950006197A20CB31CC41CD51CA214B304C404EC
:10396000D50498F0A216B306C406D50670F46150CB
:1039700070408040904061966CAF7DAF8EAF9FAF3E
:103980006197A20CB31CC41CD51CA21AB30AC40AAA
:10399000D50AC601B50129962CAD3DAD4EAD5FAD42
:1039A00029970E94B2277B018C01C601B501299697
:1039B0002CAD3DAD4EAD5FAD29970E94B227C90138
:1039C000DA015C016D01C601B5012D962CAD3DAD4E
:1039D0004EAD5FAD2D970E9493279B01AC018701EF
:1039E000FF24EE248DA59EA5AFA5B8A9A070B07048
:1039F000E82AF92A0A2B1B2BE216F30604071507FF
:103A0000C0F40894A108B108C108D108E20CF31C65
:103A1000041D151DE214F3040405150550F0E2160B
:103A2000F3060407150728F40894A108B108C10893
:103A3000D1086196ECACFDAC0EAD1FAD6197D7011E
:103A40009927882796018501082B192B2A2B3B2BB8
:103A500009AB1AAB2BAB3CAB62C26E147F04800681
:103A6000910608F451C220E0E21620E0F20621E0BF
:103A7000020720E0120788F43FEFE316F104010586
:103A8000110531F028F048E050E060E070E017C028
:103A900040E050E060E070E012C040E0E41640E03A
:103AA000F40640E0040741E0140728F048E150E044
:103AB00060E070E004C040E150E060E070E0D801F8
:103AC000C701042E04C0B695A795979587950A94CB
:103AD000D2F782529F4FDC012C9130E2A32EB12C01
:103AE000C12CD12CD601C501841B950BA60BB70B9D
:103AF000821B9109A109B1090097A105B10589F4BB
:103B0000E614F7040805190508F4F2C16DA47EA4B3
:103B10008FA498A8621473048404950408F0E8C183
:103B2000F3C16E968FAF6E97082E04C0EE0CFF1C8B
:103B3000001F111F0A94D2F76A2D681BD201C10120
:103B4000062E04C0B695A795979587950A94D2F747
:103B50005C016D01AE28BF28C02AD12AADA2BEA249
:103B6000CFA2D8A6720161016E960FAC6E9704C009
:103B7000CC0CDD1CEE1CFF1C0A94D2F7C9A2DAA201
:103B8000EBA2FCA264015301062E04C0D694C79494
:103B9000B794A7940A94D2F7D401C3016E960FACE0
:103BA0006E9704C0880F991FAA1FBB1F0A94D2F7F3
:103BB000EDA4FEA40FA518A904C016950795F794C7
:103BC000E7946A95D2F737014801682A792A8A2A48
:103BD0009B2A6D8E7E8E8F8E98A2EDA0FEA00FA1E7
:103BE00018A5380188249924980187012070307025
:103BF00065960CAF1DAF2EAF3FAF6597C601B501FF
:103C0000A40193010E94B2277B018C01C601B5017A
:103C1000A40193010E94B227C901DA011C012D0100
:103C2000C201B10165962CAD3DAD4EAD5FAD65975E
:103C30000E9493279B01AC018701FF24EE24AD8CE9
:103C4000BE8CCF8CD8A0C601AA27BB27570168011C
:103C5000A82AB92ACA2ADB2AA216B306C406D506A0
:103C600000F508942108310841085108EDA0FEA094
:103C70000FA118A5AE0CBF1CC01ED11EAE14BF04F0
:103C8000C006D10670F0A216B306C406D50648F4E5
:103C900008942108310841085108AE0CBF1CC01E11
:103CA000D11EA21AB30AC40AD50AC601B501A401DD
:103CB00093010E94B2277B018C01C601B501A401CA
:103CC00093010E94B227C901DA013C014D01C401F0
:103CD000B30165962CAD3DAD4EAD5FAD65970E94CD
:103CE00093279B01AC018701FF24EE248D8D9E8DCF
:103CF000AF8DB8A1A070B07057016801A82AB92A89
:103D0000CA2ADB2AA216B306C406D50600F5089413
:103D100061087108810891086DA17EA18FA198A505
:103D2000A60EB71EC81ED91EA616B706C806D90607
:103D300070F0A216B306C406D50648F408946108CC
:103D4000710881089108A60EB71EC81ED91ED6019B
:103D5000C501821B930BA40BB50B898F9A8FAB8F78
:103D6000BC8FD1019927882764015301A82AB92A59
:103D7000CA2ADB2AA9AABAAACBAADCAA860175019B
:103D80002FEF3FEF40E050E0E222F322042315231F
:103D9000A601662777276D964CAF5DAF6EAF7FAFFC
:103DA0006D97A9A0BAA0CBA0DCA06FEF7FEF80E059
:103DB00090E0A622B722C822D92289A19AA1ABA15C
:103DC000BCA11D0144245524C801B701A6019501D9
:103DD0000E94932769966CAF7DAF8EAF9FAF6997B6
:103DE000C801B701A20191010E9493273B014C0138
:103DF0006D966CAD7DAD8EAD9FAD6D97A6019501B5
:103E00000E9493277B018C016D966CAD7DAD8EADCC
:103E10009FAD6D97A20191010E9493275B016C01F8
:103E2000A8019701260D371D481D591D69966CACD8
:103E30007DAC8EAC9FAC6997C401AA27BB27280F25
:103E4000391F4A1F5B1F2E153F054007510748F4D5
:103E5000E12CF12C61E0062F112DAE0CBF1CC01E11
:103E6000D11ECA01AA27BB27BC01CD016A0D7B1D4B
:103E70008C1D9D1D698C7A8C8B8C9C8C66167706AC
:103E80008806990640F1661577058805990509F0B9
:103E900043C0D9019927882769962CAD3DAD4EAD19
:103EA0005FAD699740705070820F931FA41FB51FBC
:103EB0002DA53EA54FA558A96E960FAC6E9704C0D0
:103EC000220F331F441F551F0A94D2F728173907B2
:103ED0004A075B0708F509A91AA92BA93CA90150B3
:103EE00010402040304009AB1AAB2BAB3CAB14C0A8
:103EF00066247724430121E030E040E050E029AB24
:103F00003AAB4BAB5CAB0BC066247724430119AAD8
:103F10001AAA1BAA1CAA03C0662477244301FE0127
:103F2000719688E0DF011D928A95E9F7A9A8BAA8E1
:103F3000CBA8DCA8A98ABA8ACB8ADC8A6D8A7E8A59
:103F40008F8A988E29A93A894B895C89662D7E894A
:103F50008F89988DC25ADF4FE2E10C94F027A0E0E0
:103F6000B0E0E5EBFFE10C94D427DC012B01FA0172
:103F70009C91923008F439C1EB018881823008F4B9
:103F800033C1943069F4843009F02FC111969C91AB
:103F900011978981981709F428C1A6EDB0E025C1D1
:103FA000843009F421C18230A9F4923009F01DC196
:103FB0009A01AD0188E0EA010990AE01E901099298
:103FC0009E018150C1F7E201898111969C9189235C
:103FD000818308C1923009F407C112962D903C905C
:103FE0001397EB018A819B811496AD90BD90CD9083
:103FF000DC901797EC80FD800E811F819101281BBA
:10400000390BB90137FF04C066277727621B730B92
:10401000603271050CF061C0121613066CF53701A1
:104020004801062E04C096948794779467940A9466
:10403000D2F721E030E040E050E004C0220F331F0F
:10404000441F551F6A95D2F72150304040405040E0
:104050002E213F21402351232115310541055105D2
:1040600021F021E030E040E050E079018A01E628CB
:10407000F728082919293CC0232BD1F1260E371E19
:1040800035014601062E04C0969487947794679470
:104090000A94D2F721E030E040E050E004C0220F63
:1040A000331F441F551F6A95D2F7215030404040BE
:1040B00050402A213B214C215D212115310541052C
:1040C000510521F021E030E040E050E059016A0163
:1040D000A628B728C828D9280BC0821593052CF02C
:1040E0001C01AA24BB24650103C0EE24FF24870120
:1040F00011969C91D20111968C91981709F445C0A4
:10410000992339F0A80197012A193B094C095D0947
:1041100006C0A60195012E193F09400B510B57FD12
:1041200008C01182338222822483358346835783D9
:104130001DC081E081833382228288279927DC0198
:10414000821B930BA40BB50B84839583A683B78343
:104150000DC0220F331F441F551F24833583468310
:104160005783828193810197938382832481358150
:1041700046815781DA01C9010197A109B1098F5F11
:104180009F4FAF4FBF4328F30BC0918333822282EE
:10419000EA0CFB1C0C1D1D1DE482F58206831783AF
:1041A00083E08083248135814681578157FF1AC07F
:1041B000C901AA2797FDA095BA2F81709070A070B1
:1041C000B0705695479537952795822B932BA42B46
:1041D000B52B84839583A683B783828193810196CF
:1041E00093838283DF0101C0D201CD01CDB7DEB759
:1041F000E2E10C94F027A0E2B0E0E1E0F1E20C94FF
:10420000E02769837A838B839C832D833E834F834E
:104210005887E9E0EE2EF12CEC0EFD1ECE01019642
:10422000B7010E945D268E010F5E1F4FCE010596DD
:10423000B8010E945D268A8991E089278A8BC7018F
:10424000B801AE01475E5F4F0E94AF1F0E948825F4
:10425000A096E6E00C94FC27A0E2B0E0E2E3F1E2F5
:104260000C94E02769837A838B839C832D833E8320
:104270004F835887F9E0EF2EF12CEC0EFD1ECE0196
:104280000196B7010E945D268E010F5E1F4FCE0181
:104290000596B8010E945D26C701B801AE01475ED0
:1042A0005F4F0E94AF1F0E948825A096E6E00C9405
:1042B000FC27A0E2B0E0EFE5F1E20C94D42769839B
:1042C0007A838B839C832D833E834F835887CE01D3
:1042D0000196BE01675F7F4F0E945D26CE01059665
:1042E000BE016F5E7F4F0E945D269985923088F0F7
:1042F00089898230C8F0943019F4823051F404C0B6
:10430000843029F4923081F486ED90E0C6C092307A
:1043100049F420E09A858A89981321E02A87CE0102
:104320000996BBC0823049F420E09A858A899813A7
:1043300021E02A8BCE014196B0C02D843E844F846B
:1043400058886D887E888F88988CEE24FF2487019A
:10435000AA24BB24650140E050E060E070E0E0E0AA
:10436000F0E0C10181709070892BE9F0E60CF71C38
:10437000081D191D9A01AB012A0D3B1D4C1D5D1D29
:1043800080E090E0A0E0B0E0E614F704080519052D
:1043900020F481E090E0A0E0B0E0BA01A901480F6C
:1043A000591F6A1F7B1FAA0CBB1CCC1CDD1C97FE6F
:1043B00008C081E090E0A0E0B0E0A82AB92ACA2AAB
:1043C000DB2A3196E032F10549F0660C771C881C37
:1043D000991C5694479437942794C3CFFA85EA8959
:1043E0002B893C898B859C85280F391F2E5F3F4F79
:1043F00017C0CA0181709070892B61F016950795DE
:10440000F794E79480E090E0A0E0B0E8E82AF92A89
:104410000A2B1B2B76956795579547952F5F3F4F36
:1044200077FDE7CF0CC0440F551F661F771F17FDA0
:104430004160EE0CFF1C001F111F21503040403026
:1044400090E0590790E0690790E4790760F32B8FBB
:104450003C8FDB01CA018F779070A070B070803400
:104460009105A105B10561F447FD0AC0E114F1040D
:104470000105110529F0405C5F4F6F4F7F4F407879
:104480001A8EFE1711F081E08A8F4D8F5E8F6F8F2D
:1044900078A383E0898FCE0149960E948825A09653
:1044A000E2E10C94F027A8E1B0E0E9E5F2E20C9437
:1044B000DC2769837A838B839C832D833E834F83A0
:1044C0005887B9E0EB2EF12CEC0EFD1ECE010196C3
:1044D000B7010E945D268E010F5E1F4FCE0105962B
:1044E000B8010E945D262985223008F47EC03989F2
:1044F000323010F4B8017CC08A859A8989278A876E
:10450000243011F0223031F4231709F06EC066ED2B
:1045100070E06EC0343039F41D861E861F86188AFE
:104520001C861B8604C0323021F484E08987B701E1
:104530005FC02B853C858B899C89281B390B3C8768
:104540002B87ED84FE840F851889AD88BE88CF88BF
:10455000D88CEA14FB040C051D0540F4EE0CFF1C7E
:10456000001F111F215030403C872B8720E030E096
:1045700040E050E080E090E0A0E0B0E460E070E077
:10458000EA14FB040C051D0540F0282B392B4A2B9F
:104590005B2BEA18FB080C091D09B695A7959795A2
:1045A0008795EE0CFF1C001F111F6F5F7F4F6F314F
:1045B000710531F7DA01C9018F779070A070B07082
:1045C00080349105A105B10561F427FD0AC0E1140D
:1045D000F1040105110529F0205C3F4F4F4F5F4F5B
:1045E00020782D873E874F87588BBE01675F7F4FAE
:1045F000CB010E9488256896EAE00C94F827A8E190
:10460000B0E0E5E0F3E20C94E02769837A838B83E2
:104610009C832D833E834F83588789E0E82EF12CBD
:10462000EC0EFD1ECE010196B7010E945D268E01A3
:104630000F5E1F4FCE010596B8010E945D26898549
:10464000823040F08989823028F0C701B8010E9489
:10465000D52601C08FEF6896E6E00C94FC27A8E110
:10466000B0E0E5E3F3E20C94E02769837A838B837F
:104670009C832D833E834F83588789E0E82EF12C5D
:10468000EC0EFD1ECE010196B7010E945D268E0143
:104690000F5E1F4FCE010596B8010E945D268985E9
:1046A000823040F08989823028F0C701B8010E9429
:1046B000D52601C08FEF6896E6E00C94FC27A8E1B0
:1046C000B0E0E5E6F3E20C94E02769837A838B831C
:1046D0009C832D833E834F83588789E0E82EF12CFD
:1046E000EC0EFD1ECE010196B7010E945D268E01E3
:1046F0000F5E1F4FCE010596B8010E945D26898589
:10470000823040F08989823028F0C701B8010E94C8
:10471000D52601C081E06896E6E00C94FC27A8E06D
:10472000B0E0E5E9F3E20C94DD279B01AC0183E006
:104730008983DA01C9018827B7FD83959927AA27BC
:10474000BB27B82E211531054105510519F482E02A
:1047500089833AC08823A9F0203080E0380780E0C0
:10476000480780E8580729F460E070E080E09FEC9B
:1047700030C0EE24FF248701E21AF30A040B150B64
:1047800002C079018A018EE1C82ED12CDC82CB8255
:10479000ED82FE820F831887C801B7010E94392578
:1047A00001971816190684F4082E04C0EE0CFF1C9D
:1047B000001F111F0A94D2F7ED82FE820F83188723
:1047C000C81AD90ADC82CB82BA82CE0101960E9435
:1047D00088252896E9E00C94F927ACE0B0E0E3EFF7
:1047E000F3E20C94E42769837A838B839C83CE0164
:1047F0000196BE016B5F7F4F0E945D268D818230E6
:1048000061F1823050F1843021F48E81882351F19E
:104810002EC02F81388537FD20C06E812F313105A4
:104820001CF06623F9F023C08EE190E0821B930B0D
:1048300029853A854B855C8504C056954795379503
:1048400027958A95D2F76623B1F05095409530951B
:1048500021953F4F4F4F5F4F0EC020E030E040E0CA
:1048600050E009C02FEF3FEF4FEF5FE704C020E0BB
:1048700030E040E050E8B901CA012C96E2E00C9427
:104880000028A8E0B0E0E7E4F4E20C94DC277B0128
:104890008C01611571058105910519F482E0898308
:1048A00060C083E089838EE1C82ED12CDC82CB826C
:1048B000ED82FE820F831887C801B7010E94392557
:1048C000FC013197F7FF3BC0222733272E1B3F0BFC
:1048D00057016801022E04C0D694C794B794A794D8
:1048E0000A94D2F740E050E060E070E081E090E0B0
:1048F000A0E0B0E004C0880F991FAA1FBB1F2A9533
:10490000D2F70197A109B1098E219F21A023B123DC
:104910000097A105B10521F041E050E060E070E0B2
:104920004A295B296C297D294D835E836F837887B3
:104930008EE190E08E1B9F0B9C838B8312C030977F
:1049400081F00E2E04C0EE0CFF1C001F111F0A94F4
:10495000D2F7ED82FE820F831887CE1ADF0ADC823F
:10496000CB821A82CE0101960E9488252896EAE021
:104970000C94F827EF92FF920F93DF93CF93CDB76C
:10498000DEB760970FB6F894DEBF0FBECDBFA82F7D
:10499000002309F461C07E010894E11CF11C88E049
:1049A000F70111928A95E9F729833A834B835C8357
:1049B0006D837E83AF83988780E2801BE82FFF277B
:1049C000E7FDF0954D815E816F817885181684F042
:1049D0001D861E861F86188A882799278E1B9F0B87
:1049E00004C076956795579547958A95D2F728C064
:1049F000202F332727FD3095DB01CA01022E04C08A
:104A0000B695A795979587950A94D2F78D879E8737
:104A1000AF87B88B04C0440F551F661F771FEA95F8
:104A2000D2F789819A81AB81BC8104C0B695A795E4
:104A3000979587952A95D2F7482B592B6A2B7B2B74
:104A400049875A876B877C8729853A854B855C85A2
:104A50006D857E85AF8598898A2F60960FB6F8940C
:104A6000DEBF0FBECDBFCF91DF910F91FF90EF90D2
:104A70000895EF92FF920F931F937B018C0180E0CA
:104A8000E81680E0F80681E0080780E0180788F45F
:104A90008FEFE816F1040105110531F028F088E0E8
:104AA00090E0A0E0B0E017C080E090E0A0E0B0E0CF
:104AB00012C080E0E81680E0F80680E0080781E098
:104AC000180728F088E190E0A0E0B0E004C080E1A1
:104AD00090E0A0E0B0E020E230E040E050E0281BB1
:104AE000390B4A0B5B0B04C016950795F794E794B6
:104AF0008A95D2F7F701E252FF4F8081281B3109D6
:104B000041095109C9011F910F91FF90EF9008953C
:104B1000DF92EF92FF920F931F93FC01E480F580E8
:104B200006811781D1808081823048F480E090E056
:104B3000A0E1B0E0E82AF92A0A2B1B2BA5C084309B
:104B400009F49FC0823021F4EE24FF24870105C0C0
:104B5000E114F1040105110519F4E0E0F0E096C05C
:104B6000628173819FEF623879070CF05BC022E8A5
:104B70003FEF261B370B2A3131052CF020E030E0C7
:104B800040E050E02AC0B801A701022E04C076958B
:104B90006795579547950A94D2F781E090E0A0E099
:104BA000B0E004C0880F991FAA1FBB1F2A95D2F737
:104BB0000197A109B1098E219F21A023B12300975C
:104BC000A105B10521F081E090E0A0E0B0E09A01FC
:104BD000AB01282B392B4A2B5B2BDA01C9018F77CC
:104BE0009070A070B07080349105A105B10539F4C2
:104BF00027FF09C0205C3F4F4F4F5F4F04C0215C2F
:104C00003F4F4F4F5F4FE0E0F0E02030A0E03A0729
:104C1000A0E04A07A0E45A0710F0E1E0F0E07901D3
:104C20008A0127C06038710564F5FB01E158FF4F28
:104C3000D801C7018F779070A070B0708034910553
:104C4000A105B10539F4E7FE0DC080E490E0A0E0D5
:104C5000B0E004C08FE390E0A0E0B0E0E80EF91E01
:104C60000A1F1B1F17FF05C016950795F794E794B9
:104C7000319687E016950795F794E7948A95D1F7D2
:104C800005C0EE24FF248701EFEFF0E06E2F67955B
:104C900066276795902F9F77D794DD24D7948E2F22
:104CA0008695492F462B582F5D29B701CA011F91C0
:104CB0000F91FF90EF90DF900895FC01DB014081A0
:104CC00051812281622F6F7770E0221F2227221FDD
:104CD0009381892F880F822B282F30E0991F9927E5
:104CE000991F11969C93119721153105A9F541152E
:104CF00051056105710511F482E037C082E89FEF2C
:104D000013969C938E9312979A01AB0167E0220F42
:104D1000331F441F551F6A95D1F783E08C930DC054
:104D2000220F331F441F551F12968D919C9113978C
:104D3000019713969C938E931297203080E038074A
:104D400080E0480780E4580758F314962D933D936C
:104D50004D935C93179708952F3F310579F44115D2
:104D600051056105710519F484E08C93089564FF81
:104D700003C081E08C9312C01C9210C02F573040AA
:104D800013963C932E93129783E08C9387E0440F05
:104D9000551F661F771F8A95D1F7706414964D933F
:104DA0005D936D937C93179708951F93DC01FB012E
:104DB0009C91923008F447C08081823008F443C04F
:104DC000943051F411961C91843099F58181682FAB
:104DD00070E0611B71093FC0843021F0923031F4E2
:104DE0008230B9F18181882389F12DC011961C91FF
:104DF00011978230F1F081811817D9F412962D9114
:104E00003C911397828193818217930794F028171E
:104E10003907BCF014968D919D910D90BC91A02DF9
:104E20002481358146815781281739074A075B0756
:104E300018F4112341F00AC082179307A407B5079D
:104E400040F4112319F061E070E005C06FEF7FEFCF
:104E500002C060E070E0CB011F910895FB019F014B
:104E6000E8944230C4F04532B4F44A3029F497FB58
:104E70001EF4909581959F4F642F77270E940B28F1
:104E8000805D8A330CF0895D8193CB010097A1F797
:104E900016F45DE251931082C9010C948327FA0144
:104EA000CF93FF93EF93223044F1253234F5C22F94
:104EB000E894CA3049F497FB3EF49095809570953C
:104EC00061957F4F8F4F9F4F2C2F332744275527B6
:104ED000FF93EF930E94B227EF91FF91605D6A33D9
:104EE0000CF0695D6193B901CA0160507040804067
:104EF000904051F716F4CDE2C19310828F919F91AB
:104F0000CF910C948327DC01FC01672F71917723EB
:104F1000E1F7329704C07C916D9370836291AE1774
:104F2000BF07C8F30895629FD001739FF001829F6D
:104F3000E00DF11D649FE00DF11D929FF00D839F28
:104F4000F00D749FF00D659FF00D9927729FB00DC5
:104F5000E11DF91F639FB00DE11DF91FBD01CF01D8
:104F600011240895A1E21A2EAA1BBB1BFD010DC03E
:104F7000AA1FBB1FEE1FFF1FA217B307E407F50709
:104F800020F0A21BB30BE40BF50B661F771F881FE5
:104F9000991F1A9469F760957095809590959B017B
:104FA000AC01BD01CF0108952F923F924F925F92C5
:104FB0006F927F928F929F92AF92BF92CF92DF9229
:104FC000EF92FF920F931F93CF93DF93CDB7DEB78E
:104FD000CA1BDB0B0FB6F894DEBF0FBECDBF099422
:104FE0002A88398848885F846E847D848C849B8479
:104FF000AA84B984C884DF80EE80FD800C811B8187
:10500000AA81B981CE0FD11D0FB6F894DEBF0FBEB5
:10501000CDBFED010895AA1BBB1B51E107C0AA1F1C
:10502000BB1FA617B70710F0A61BB70B881F991F49
:105030005A95A9F780959095BC01CD010895F894F3
:02504000FFCFA0
:10504200030001030101030201030301030401033D
:10505200050103060003070100010000020000072A
:105062000100060100050100040101030101020122
:10507200010101010400010500010601010700020E
:105082000001020101020201020301020401020500
:1050920001020601020701467265713A20002048AA
:1050A2007A2020202000447574793A20002025209F
:1050B200202020202000000000000000000000014D
:1050C20002020303030304040404040404040505A4
:1050D200050505050505050505050505050506067C
:1050E200060606060606060606060606060606065E
:1050F200060606060606060606060606060607074C
:10510200070707070707070707070707070707072D
:10511200070707070707070707070707070707071D
:10512200070707070707070707070707070707070D
:1051320007070707070707070707070707070808FB
:1051420008080808080808080808080808080808DD
:1051520008080808080808080808080808080808CD
:1051620008080808080808080808080808080808BD
:1051720008080808080808080808080808080808AD
:10518200080808080808080808080808080808089D
:10519200080808080808080808080808080808088D
:1051A200080808080808080808080808080808087D
:0E51B20008080808080808080808080808087F
:00000001FF
